:02000000112FBE
:08000800FF00030E8312031335
:10001000A0000A0EA100040EA2008A110A12142FD9
:10002000AE08031D14280800F930FF3E031D1528F3
:100030000000AE0B142808000000000000000000C3
:10004000000000000000AE0B1C2808000F308316D3
:1000500003138704831287160000000007170000AF
:100060000000000000000000070EF039C90007136F
:100070000000000000000000000007170000000062
:100080000000000000000F300705C904071300003E
:10009000000000004908CA00080049104808CA00CA
:1000A000871200000000F03083168705F0308312BD
:1000B00087054A0E0F39870407170000000000006B
:1000C000000000000713000000000000CA01491CE6
:1000D000CA0A49104A184914C80EF030C805491810
:1000E0004E280800A308031D81284810071E792800
:1000F000481407122620CA1B7A2848180716481CDD
:1001000007124708C8004D200800B001B101B0191E
:1001100008002F1C8D282E08B107AF0C0310AE0D60
:10012000B00A8728871200000000F0308316870588
:10013000F030831287052E0E0F3987040717000051
:100140000000000000000000071300000000000095
:100150000800C501071683132F1883172E08840083
:1001600083132F1883172E0884004508C700C50A7B
:10017000470884070008C600C60803190800460897
:100180000A3A031DC9280712C030C700722007169B
:10019000AB284608C7007220AB2807122E08B00013
:1001A0002F1CD4284030B007AF1CD8281430B0071B
:1001B0003008803EC7007220080083120313071224
:1001C0000130C70072200230C700722008000130E1
:1001D000831203130605AE00AE08031DF828A90814
:1001E000031DF8281430AE0010200130A700A9002C
:1001F00001300605AE002E03031D03292903031D4C
:1002000003290230A90001300605AE00AE08031D27
:1002100018292908023A031D18291430AE001020AD
:10022000A801A701AC018601AD01AB010430A90012
:1002300001300605AE002E03031D08002908043A0C
:100240000319A9010800831203132703031D33298F
:10025000AD08031D2D29223085002D03031D080044
:100260002C30850008000930850008008312031334
:100270002703031D3E2BAE010230AF00CD202030FE
:10028000B4003A30B5004D30B0006430B2006F3089
:10029000B100B300B6010030AF003030AE00A9208D
:1002A0007830240203187C29AE01AF01CD20203024
:1002B000B000B100B200B300B400B800BF00C0008D
:1002C000C100C200C3004430B7004530B6004C3016
:1002D000B5005330B9006530BD006830BA006F30EA
:1002E000BB007230BE007730BC00C4010030AF00EC
:1002F0003030AE00A9209A29AE01AF01CD202030C8
:10030000B000B100B200B300B400B500B600B70051
:10031000B800B900BA00BB00BC00BD00BE00BF0001
:10032000C000C100C200C300C4010030AF003030C3
:10033000AE00A920A608031DB2290F30AE0003307D
:10034000AF00CD204A30B0007530B1006C30B20043
:100350006930B3006F30B400B5010030AF00303009
:10036000AE00A9202603031DD6290930AE000330B4
:10037000AF00CD204A30B0007530B1006C30B20013
:100380006930B3006F30B4002030B5004330B600A0
:100390006530B7007330B8006130B9007230BA0010
:1003A000BB010030AF003030AE00A9202608023A71
:1003B000031D072AAE010330AF00CD202030B50069
:1003C000BB004330B6004A30B0004B30BC00613057
:1003D000B900C1006330BE006530B7006830BF00AF
:1003E000C0006930B3006C30B2006E30C200C30090
:1003F0006F30B400BD007230BA007330B800753091
:10040000B100C4010030AF003030AE00A920260892
:10041000043A031D2A2AAE010330AF00CD2020305C
:10042000B000B100B200B300B400B500B600B70030
:10043000B800B900BA00BB00BC00BD00BE00BF00E0
:10044000C000C100C200C300C4010030AF003030A2
:10045000AE00A920A808031D4F2A0730AE000230C5
:10046000AF00CD202030BA00BB004430B000613076
:10047000B300B7006430B8006530B1006930B50032
:100480006F30B9007330B2007430B4007630B6000B
:10049000BC010030AF003030AE00A9208601280337
:1004A000031D832AAE010130AF00CD204330B000E0
:1004B0006F30B1007230B2002030B3003A30B40077
:1004C000B5010030AF003030AE00A9200730AE00DB
:1004D0000230AF00CD202030B500B600B700B80024
:1004E000B900BA00BB00BC004330B0006C30B200B1
:1004F0006F30B100B3007230B400BD010030AF0006
:100500003030AE00A9202808023A031DC02AAE01EF
:100510000130AF00CD202030B600B8003A30B7002F
:100520004530B0006530B2006630B1006930B300CC
:100530006F30B5007430B400B9010030AF00303016
:10054000AE00A9200730AE000230AF00CD2045300C
:10055000B0006630B100B2006530B3006330B40063
:100560007430B5002030B600B700B800B900BA004A
:10057000BB00BC00BD010030AF003030AE00A92090
:100580002808033A031D3E2B0730AE000230AF00AF
:10059000CD202030BA00BB00BC004930B000613033
:1005A000B600B8006330B7006930B4006C30B100F9
:1005B0006D30B3006E30B5006F30B9007530B200E9
:1005C000BD010030AF003030AE00A920AE010130D7
:1005D000AF00CD202030B700B9003A30B8004C3021
:1005E000B0006130B100B400B6006430B5006D30C9
:1005F000B2007030B300BA010030AF003030AE004E
:10060000A9202D03031D202B0A30AE000130AF00BE
:10061000CD202030B600B700B800B9004C30B00093
:100620006130B300B5006430B4006730B2006930A7
:10063000B100BA010030AF003030AE00A9203E2B2F
:100640000A30AE000130AF00CD202030B900443078
:10065000B0006130B600B8006430B7006530B1005A
:100660006730B5006930B4006C30B3007330B2004D
:10067000BA010030AF003030AE00A920A70803193E
:10068000DD200800831203132703031D0800280838
:10069000023A031D08002C08003A03195C2B013AAA
:1006A0000319B52B033A0319242C013A0319772CAB
:1006B000073A0319CA2C08000930AE000130AF0018
:1006C000CD202030BA005330B0006130B800633024
:1006D000B6006530B100B4006930B7006C30B900C5
:1006E0006E30B5007130B2007530B300BB01003020
:1006F000AF003030AE00A920193025020318822B3C
:10070000083086002508193C03188C2B323025024E
:1007100003188C2B103086002508323C0318962BCA
:100720004B3025020318962B2030860025084B3CC1
:100730000318A02B643025020318A02B3830860044
:100740002508643C0318AA2B7D3025020318AA2B28
:100750002830860025087D3C0318080096302502C5
:10076000031808003030860008000930AE00013060
:10077000AF00CD205030B0006330B300B90064301A
:10078000B5006530B6006930B200B8006C30B70013
:100790006F30B400BA007330B100BB010030AF005D
:1007A0003030AE00A920143025020318D92B2508BB
:1007B00086002508143C0318E42B28302502031872
:1007C000E42B250EF03986002508283C0318F62B6B
:1007D0003C3025020318F62B2508AE00AE0DAE0DF9
:1007E000AE0DAE0DAE0DE0302E05860025083C3C6A
:1007F0000318052C503025020318052C3830AE00A4
:100800002508AF008520310886002508503C0318D4
:10081000142C643025020318142C2830AE0025084F
:10082000AF008520310886002508643C03180800C5
:1008300078302502031808003030AE002508AF00DC
:1008400085203108860008000930AE000130AF0075
:10085000CD205030B0006930B1007330B200633049
:10086000B3006130B4002D30B5005230B6006530B1
:10087000B7006430B8002030B900BA00BB010030C6
:10088000AF003030AE00A9201430250203184A2CE6
:10089000083086002508143C0318522C2830250205
:1008A000031C86012508283C03185C2C3C302502DB
:1008B00003185C2C0830860025083C3C0318642C87
:1008C00050302502031C86012508503C03186E2C6D
:1008D0006430250203186E2C083086002508643C1D
:1008E0000318080078302502031C8601080009302F
:1008F000AE000130AF00CD205030B0006930B10003
:100900007330B2006330B3006130B4002D30B500F5
:100910004730B6007230B7006530B800B9006E30AD
:10092000BA00BB010030AF003030AE00A920143057
:10093000250203189D2C103086002508143C03184E
:10094000A52C28302502031C86012508283C031805
:10095000AF2C3C3025020318AF2C10308600250840
:100960003C3C0318B72C50302502031C8601250897
:10097000503C0318C12C643025020318C12C1030E0
:1009800086002508643C0318080078302502031C03
:10099000860108000930AE000130AF00CD20503094
:1009A000B0006930B1007330B2006330B300613021
:1009B000B4002D30B5004230B6006C30B700753051
:1009C000B8006530B9002030BA00BB010030AF007C
:1009D0003030AE00A920143025020318F12C20304D
:1009E00086002508143C0318F92C28302502031C26
:1009F00086012508283C0318032D3C3025020318E6
:100A0000032D2030860025083C3C03180B2D503068
:100A10002502031C86012508503C0318152D64305F
:100A200025020318152D203086002508643C031884
:100A3000080078302502031C860108008312031386
:100A40002703031D08002803031D08002B08003A94
:100A500003193A2D013A03195F2D033A0319812D29
:100A6000013A0319A32D073A0319C62D013A0319B8
:100A7000E72D08000530AE000130AF00CD2020305A
:100A8000B000B900BA00BB00BC00BD00BE005630CB
:100A9000B1006530B200B5006830B7006C30B60008
:100AA0006D30B4006F30B8007230B300BF01003059
:100AB000AF003030AE00A9200830860008000530B5
:100AC000AE000130AF00CD202030B000B600B7003E
:100AD000B800B900BA00BB00BC00BD00BE00563073
:100AE000B1006430B4006530B200B5007230B300BC
:100AF000BF010030AF003030AE00A92010308600BA
:100B000008000530AE000130AF00CD202030B0002D
:100B1000B500B600B700B800B900BA00BB00BC0011
:100B2000BD00BE004130B1006C30B4007530B30080
:100B30007A30B200BF010030AF003030AE00A920E3
:100B40002030860008000530AE000130AF00CD2017
:100B50002030B000B800B900BA00BB00BC00BD0036
:100B6000BE004C30B1006130B200B400B7006A3052
:100B7000B6006E30B5007230B300BF010030AF0078
:100B80003030AE00A9203830860008000530AE00B5
:100B90000130AF00CD202030B000B500B600B70066
:100BA000B800B900BA00BB00BC00BD00BE005230A6
:100BB000B1006F30B200B4007830B300BF01003034
:100BC000AF003030AE00A920283086000800053084
:100BD000AE000130AF00CD202030B000B600B7002D
:100BE000B800B900BA00BB00BC00BD00BE00433075
:100BF000B1006130B3006930B2006E30B4006F30C4
:100C0000B500BF010030AF003030AE00A920303059
:100C1000860008000230831203130605AE00AE08FA
:100C2000031D1B2EAA08031D1B2E1430AE0010201E
:100C3000A80A0130AA0002300605AE002E08023ACA
:100C4000031D272E2A03031D272E0230AA0002307F
:100C50000605AE00AE08031D372E2A08023A031D12
:100C6000372E1430AE001020A80A0430AA0002303B
:100C70000605AE002E08023A031D422E2A08043A49
:100C80000319AA012808043A0319A80108008312CD
:100C900003132703031D080004300605AE002E08C9
:100CA000043A031D08002803031D682E2703031DB3
:100CB000642E04300605AE002E08043A031D642E8F
:100CC0002803031D642E562E1430AE001020AB0AEC
:100CD0002B08063A031D702E1430AE001020AB0115
:100CE0002808023A031D862E2703031D822E043096
:100CF0000605AE002E08043A031D822E2808023A8B
:100D00000319742E1430AE001020AC0A2C08053ADA
:100D1000031D8E2E1430AE001020AC012808033ABB
:100D2000031D08002703031DA02E04300605AE0096
:100D30002E08043A031DA02E2808033A0319922E08
:100D40001430AE001020AD0A2D08023A031D080031
:100D50001430AE001020AD010800831603130712F3
:100D60008712071301308312A3001030AE00102049
:100D700007123030AE0092200530AE001020303027
:100D8000AE0092206430AE001C203030AE009220C5
:100D90002E10071A2E1407122620CA1BCC2E2E182E
:100DA00007162E1C07122830AE0092202E10071AAC
:100DB0002E1407122620CA1BDA2E2E1807162E1CF8
:100DC0000712A3012830C70072200630C700722026
:100DD0000C30C70072208030C700722008008316D4
:100DE0000313850107308600831285018601A70160
:100DF000A601A801A901AA01AB01AC01AD01AD2674
:100E0000DD208530831681008330831281008B16AC
:100E10008B17E720232147260A2636211E25422349
:100E2000092F8A110A12EF2E0B1D2A2F83308312ED
:100E300003138100A40AA50A25087D3A0319A50118
:100E400024087D3A031D292FA60A2608053A03190E
:100E5000A6010B1183120313220E8400210E8A00B7
:0A0E6000200E8300FF0E7F0E090034
:00000001FF
